{
  "_format": "hh-sol-artifact-1",
  "contractName": "MyEpicNFT",
  "sourceName": "contracts/MyEpicNFT.sol",
  "abi": [
    {
      "inputs": [],
      "stateMutability": "nonpayable",
      "type": "constructor"
    },
    {
      "anonymous": false,
      "inputs": [
        {
          "indexed": true,
          "internalType": "address",
          "name": "owner",
          "type": "address"
        },
        {
          "indexed": true,
          "internalType": "address",
          "name": "approved",
          "type": "address"
        },
        {
          "indexed": true,
          "internalType": "uint256",
          "name": "tokenId",
          "type": "uint256"
        }
      ],
      "name": "Approval",
      "type": "event"
    },
    {
      "anonymous": false,
      "inputs": [
        {
          "indexed": true,
          "internalType": "address",
          "name": "owner",
          "type": "address"
        },
        {
          "indexed": true,
          "internalType": "address",
          "name": "operator",
          "type": "address"
        },
        {
          "indexed": false,
          "internalType": "bool",
          "name": "approved",
          "type": "bool"
        }
      ],
      "name": "ApprovalForAll",
      "type": "event"
    },
    {
      "anonymous": false,
      "inputs": [
        {
          "indexed": false,
          "internalType": "address",
          "name": "sender",
          "type": "address"
        },
        {
          "indexed": false,
          "internalType": "uint256",
          "name": "tokenId",
          "type": "uint256"
        }
      ],
      "name": "NewEpicNFTMinted",
      "type": "event"
    },
    {
      "anonymous": false,
      "inputs": [
        {
          "indexed": true,
          "internalType": "address",
          "name": "from",
          "type": "address"
        },
        {
          "indexed": true,
          "internalType": "address",
          "name": "to",
          "type": "address"
        },
        {
          "indexed": true,
          "internalType": "uint256",
          "name": "tokenId",
          "type": "uint256"
        }
      ],
      "name": "Transfer",
      "type": "event"
    },
    {
      "inputs": [
        {
          "internalType": "address",
          "name": "to",
          "type": "address"
        },
        {
          "internalType": "uint256",
          "name": "tokenId",
          "type": "uint256"
        }
      ],
      "name": "approve",
      "outputs": [],
      "stateMutability": "nonpayable",
      "type": "function"
    },
    {
      "inputs": [
        {
          "internalType": "address",
          "name": "owner",
          "type": "address"
        }
      ],
      "name": "balanceOf",
      "outputs": [
        {
          "internalType": "uint256",
          "name": "",
          "type": "uint256"
        }
      ],
      "stateMutability": "view",
      "type": "function"
    },
    {
      "inputs": [
        {
          "internalType": "uint256",
          "name": "tokenId",
          "type": "uint256"
        }
      ],
      "name": "getApproved",
      "outputs": [
        {
          "internalType": "address",
          "name": "",
          "type": "address"
        }
      ],
      "stateMutability": "view",
      "type": "function"
    },
    {
      "inputs": [
        {
          "internalType": "address",
          "name": "owner",
          "type": "address"
        },
        {
          "internalType": "address",
          "name": "operator",
          "type": "address"
        }
      ],
      "name": "isApprovedForAll",
      "outputs": [
        {
          "internalType": "bool",
          "name": "",
          "type": "bool"
        }
      ],
      "stateMutability": "view",
      "type": "function"
    },
    {
      "inputs": [],
      "name": "makeAnEpicNFT",
      "outputs": [],
      "stateMutability": "nonpayable",
      "type": "function"
    },
    {
      "inputs": [],
      "name": "name",
      "outputs": [
        {
          "internalType": "string",
          "name": "",
          "type": "string"
        }
      ],
      "stateMutability": "view",
      "type": "function"
    },
    {
      "inputs": [
        {
          "internalType": "uint256",
          "name": "tokenId",
          "type": "uint256"
        }
      ],
      "name": "ownerOf",
      "outputs": [
        {
          "internalType": "address",
          "name": "",
          "type": "address"
        }
      ],
      "stateMutability": "view",
      "type": "function"
    },
    {
      "inputs": [
        {
          "internalType": "uint256",
          "name": "tokenId",
          "type": "uint256"
        }
      ],
      "name": "pickRandomFirstWord",
      "outputs": [
        {
          "internalType": "string",
          "name": "",
          "type": "string"
        }
      ],
      "stateMutability": "view",
      "type": "function"
    },
    {
      "inputs": [
        {
          "internalType": "uint256",
          "name": "tokenId",
          "type": "uint256"
        }
      ],
      "name": "pickRandomSecondWord",
      "outputs": [
        {
          "internalType": "string",
          "name": "",
          "type": "string"
        }
      ],
      "stateMutability": "view",
      "type": "function"
    },
    {
      "inputs": [
        {
          "internalType": "uint256",
          "name": "tokenId",
          "type": "uint256"
        }
      ],
      "name": "pickRandomThirdWord",
      "outputs": [
        {
          "internalType": "string",
          "name": "",
          "type": "string"
        }
      ],
      "stateMutability": "view",
      "type": "function"
    },
    {
      "inputs": [
        {
          "internalType": "address",
          "name": "from",
          "type": "address"
        },
        {
          "internalType": "address",
          "name": "to",
          "type": "address"
        },
        {
          "internalType": "uint256",
          "name": "tokenId",
          "type": "uint256"
        }
      ],
      "name": "safeTransferFrom",
      "outputs": [],
      "stateMutability": "nonpayable",
      "type": "function"
    },
    {
      "inputs": [
        {
          "internalType": "address",
          "name": "from",
          "type": "address"
        },
        {
          "internalType": "address",
          "name": "to",
          "type": "address"
        },
        {
          "internalType": "uint256",
          "name": "tokenId",
          "type": "uint256"
        },
        {
          "internalType": "bytes",
          "name": "_data",
          "type": "bytes"
        }
      ],
      "name": "safeTransferFrom",
      "outputs": [],
      "stateMutability": "nonpayable",
      "type": "function"
    },
    {
      "inputs": [
        {
          "internalType": "address",
          "name": "operator",
          "type": "address"
        },
        {
          "internalType": "bool",
          "name": "approved",
          "type": "bool"
        }
      ],
      "name": "setApprovalForAll",
      "outputs": [],
      "stateMutability": "nonpayable",
      "type": "function"
    },
    {
      "inputs": [
        {
          "internalType": "string",
          "name": "word",
          "type": "string"
        }
      ],
      "name": "setLineBreak",
      "outputs": [
        {
          "internalType": "string",
          "name": "",
          "type": "string"
        }
      ],
      "stateMutability": "view",
      "type": "function"
    },
    {
      "inputs": [
        {
          "internalType": "bytes4",
          "name": "interfaceId",
          "type": "bytes4"
        }
      ],
      "name": "supportsInterface",
      "outputs": [
        {
          "internalType": "bool",
          "name": "",
          "type": "bool"
        }
      ],
      "stateMutability": "view",
      "type": "function"
    },
    {
      "inputs": [],
      "name": "symbol",
      "outputs": [
        {
          "internalType": "string",
          "name": "",
          "type": "string"
        }
      ],
      "stateMutability": "view",
      "type": "function"
    },
    {
      "inputs": [
        {
          "internalType": "uint256",
          "name": "tokenId",
          "type": "uint256"
        }
      ],
      "name": "tokenURI",
      "outputs": [
        {
          "internalType": "string",
          "name": "",
          "type": "string"
        }
      ],
      "stateMutability": "view",
      "type": "function"
    },
    {
      "inputs": [
        {
          "internalType": "address",
          "name": "from",
          "type": "address"
        },
        {
          "internalType": "address",
          "name": "to",
          "type": "address"
        },
        {
          "internalType": "uint256",
          "name": "tokenId",
          "type": "uint256"
        }
      ],
      "name": "transferFrom",
      "outputs": [],
      "stateMutability": "nonpayable",
      "type": "function"
    }
  ],
  "bytecode": "0x608060405260405180610160016040528061012f81526020016200460e61012f91396008908051906020019062000038929190620005cd565b506040518060a001604052806040518060400160405280600281526020017f342000000000000000000000000000000000000000000000000000000000000081525081526020016040518060400160405280600281526020017f382000000000000000000000000000000000000000000000000000000000000081525081526020016040518060400160405280600281526020017f392000000000000000000000000000000000000000000000000000000000000081525081526020016040518060400160405280600381526020017f313020000000000000000000000000000000000000000000000000000000000081525081526020016040518060400160405280600381526020017f313420000000000000000000000000000000000000000000000000000000000081525081525060099060056200017b9291906200065e565b506040518060a001604052806040518060400160405280600a81526020017f746163686962616e61200000000000000000000000000000000000000000000081525081526020016040518060400160405280600881526020017f686969726167692000000000000000000000000000000000000000000000000081525081526020016040518060400160405280600b81526020017f686967652064616e64792000000000000000000000000000000000000000000081525081526020016040518060400160405280600e81526020017f6361707461696e2064616972692000000000000000000000000000000000000081525081526020016040518060400160405280600881526020017f6361707461696e20000000000000000000000000000000000000000000000000815250815250600a906005620002be9291906200065e565b506040518060a001604052806040518060400160405280600581526020017f6b6f757a7500000000000000000000000000000000000000000000000000000081525081526020016040518060400160405280600881526020017f6e696e6f6d69796100000000000000000000000000000000000000000000000081525081526020016040518060400160405280600c81526020017f726f6b6b616b756261736869000000000000000000000000000000000000000081525081526020016040518060400160405280600981526020017f686972617473756b61000000000000000000000000000000000000000000000081525081526020016040518060400160405280600881526020017f73616d756b617761000000000000000000000000000000000000000000000000815250815250600b906005620004019291906200065e565b503480156200040f57600080fd5b506040518060400160405280600981526020017f5371756172654e465400000000000000000000000000000000000000000000008152506040518060400160405280600681526020017f5351554152450000000000000000000000000000000000000000000000000000815250816000908051906020019062000494929190620005cd565b508060019080519060200190620004ad929190620005cd565b505050620004fb6040518060400160405280601881526020017f54686973206973206d79204e465420636f6e74726163742e00000000000000008152506200050160201b620012bb1760201c565b6200087f565b620005a18160405160240162000518919062000793565b6040516020818303038152906040527f41304fac000000000000000000000000000000000000000000000000000000007bffffffffffffffffffffffffffffffffffffffffffffffffffffffff19166020820180517bffffffffffffffffffffffffffffffffffffffffffffffffffffffff8381831617835250505050620005a460201b60201c565b50565b60008151905060006a636f6e736f6c652e6c6f679050602083016000808483855afa5050505050565b828054620005db9062000809565b90600052602060002090601f016020900481019282620005ff57600085556200064b565b82601f106200061a57805160ff19168380011785556200064b565b828001600101855582156200064b579182015b828111156200064a5782518255916020019190600101906200062d565b5b5090506200065a9190620006c5565b5090565b828054828255906000526020600020908101928215620006b2579160200282015b82811115620006b1578251829080519060200190620006a0929190620005cd565b50916020019190600101906200067f565b5b509050620006c19190620006e4565b5090565b5b80821115620006e0576000816000905550600101620006c6565b5090565b5b80821115620007085760008181620006fe91906200070c565b50600101620006e5565b5090565b5080546200071a9062000809565b6000825580601f106200072e57506200074f565b601f0160209004906000526020600020908101906200074e9190620006c5565b5b50565b60006200075f82620007b7565b6200076b8185620007c2565b93506200077d818560208601620007d3565b62000788816200086e565b840191505092915050565b60006020820190508181036000830152620007af818462000752565b905092915050565b600081519050919050565b600082825260208201905092915050565b60005b83811015620007f3578082015181840152602081019050620007d6565b8381111562000803576000848401525b50505050565b600060028204905060018216806200082257607f821691505b602082108114156200083957620008386200083f565b5b50919050565b7f4e487b7100000000000000000000000000000000000000000000000000000000600052602260045260246000fd5b6000601f19601f8301169050919050565b613d7f806200088f6000396000f3fe608060405234801561001057600080fd5b50600436106101165760003560e01c806395d89b41116100a2578063c575757a11610071578063c575757a14610303578063c87b56dd14610333578063de9d132f14610363578063e985e9c51461036d578063f8b7d2351461039d57610116565b806395d89b411461027d578063a22cb4651461029b578063b187301f146102b7578063b88d4fde146102e757610116565b806323b872dd116100e957806323b872dd146101b55780632de38d68146101d157806342842e0e146102015780636352211e1461021d57806370a082311461024d57610116565b806301ffc9a71461011b57806306fdde031461014b578063081812fc14610169578063095ea7b314610199575b600080fd5b610135600480360381019061013091906127eb565b6103cd565b6040516101429190612f36565b60405180910390f35b6101536104af565b6040516101609190612f51565b60405180910390f35b610183600480360381019061017e919061287e565b610541565b6040516101909190612ea6565b60405180910390f35b6101b360048036038101906101ae91906127af565b6105c6565b005b6101cf60048036038101906101ca91906126a9565b6106de565b005b6101eb60048036038101906101e6919061287e565b61073e565b6040516101f89190612f51565b60405180910390f35b61021b600480360381019061021691906126a9565b6108da565b005b6102376004803603810190610232919061287e565b6108fa565b6040516102449190612ea6565b60405180910390f35b61026760048036038101906102629190612644565b6109ac565b60405161027491906131e1565b60405180910390f35b610285610a64565b6040516102929190612f51565b60405180910390f35b6102b560048036038101906102b09190612773565b610af6565b005b6102d160048036038101906102cc919061287e565b610b0c565b6040516102de9190612f51565b60405180910390f35b61030160048036038101906102fc91906126f8565b610c2a565b005b61031d6004803603810190610318919061287e565b610c8c565b60405161032a9190612f51565b60405180910390f35b61034d6004803603810190610348919061287e565b610daa565b60405161035a9190612f51565b60405180910390f35b61036b610efc565b005b6103876004803603810190610382919061266d565b611180565b6040516103949190612f36565b60405180910390f35b6103b760048036038101906103b2919061283d565b611214565b6040516103c49190612f51565b60405180910390f35b60007f80ac58cd000000000000000000000000000000000000000000000000000000007bffffffffffffffffffffffffffffffffffffffffffffffffffffffff1916827bffffffffffffffffffffffffffffffffffffffffffffffffffffffff1916148061049857507f5b5e139f000000000000000000000000000000000000000000000000000000007bffffffffffffffffffffffffffffffffffffffffffffffffffffffff1916827bffffffffffffffffffffffffffffffffffffffffffffffffffffffff1916145b806104a857506104a782611354565b5b9050919050565b6060600080546104be906134a6565b80601f01602080910402602001604051908101604052809291908181526020018280546104ea906134a6565b80156105375780601f1061050c57610100808354040283529160200191610537565b820191906000526020600020905b81548152906001019060200180831161051a57829003601f168201915b5050505050905090565b600061054c826113be565b61058b576040517f08c379a000000000000000000000000000000000000000000000000000000000815260040161058290613161565b60405180910390fd5b6004600083815260200190815260200160002060009054906101000a900473ffffffffffffffffffffffffffffffffffffffff169050919050565b60006105d1826108fa565b90508073ffffffffffffffffffffffffffffffffffffffff168373ffffffffffffffffffffffffffffffffffffffff161415610642576040517f08c379a0000000000000000000000000000000000000000000000000000000008152600401610639906131a1565b60405180910390fd5b8073ffffffffffffffffffffffffffffffffffffffff1661066161142a565b73ffffffffffffffffffffffffffffffffffffffff161480610690575061068f8161068a61142a565b611180565b5b6106cf576040517f08c379a00000000000000000000000000000000000000000000000000000000081526004016106c6906130a1565b60405180910390fd5b6106d98383611432565b505050565b6106ef6106e961142a565b826114eb565b61072e576040517f08c379a0000000000000000000000000000000000000000000000000000000008152600401610725906131c1565b60405180910390fd5b6107398383836115c9565b505050565b6060600061077261074e84611830565b60405160200161075e9190612e62565b6040516020818303038152906040526119dd565b9050600980549050816107859190613552565b90506107c66040518060400160405280600b81526020017f72616e6420736565643a2000000000000000000000000000000000000000000081525082611a10565b6108056040518060400160405280601181526020017f72616e6420666972737420776f72643a2000000000000000000000000000000081525082611a10565b6009818154811061083f577f4e487b7100000000000000000000000000000000000000000000000000000000600052603260045260246000fd5b906000526020600020018054610854906134a6565b80601f0160208091040260200160405190810160405280929190818152602001828054610880906134a6565b80156108cd5780601f106108a2576101008083540402835291602001916108cd565b820191906000526020600020905b8154815290600101906020018083116108b057829003601f168201915b5050505050915050919050565b6108f583838360405180602001604052806000815250610c2a565b505050565b6000806002600084815260200190815260200160002060009054906101000a900473ffffffffffffffffffffffffffffffffffffffff169050600073ffffffffffffffffffffffffffffffffffffffff168173ffffffffffffffffffffffffffffffffffffffff1614156109a3576040517f08c379a000000000000000000000000000000000000000000000000000000000815260040161099a906130e1565b60405180910390fd5b80915050919050565b60008073ffffffffffffffffffffffffffffffffffffffff168273ffffffffffffffffffffffffffffffffffffffff161415610a1d576040517f08c379a0000000000000000000000000000000000000000000000000000000008152600401610a14906130c1565b60405180910390fd5b600360008373ffffffffffffffffffffffffffffffffffffffff1673ffffffffffffffffffffffffffffffffffffffff168152602001908152602001600020549050919050565b606060018054610a73906134a6565b80601f0160208091040260200160405190810160405280929190818152602001828054610a9f906134a6565b8015610aec5780601f10610ac157610100808354040283529160200191610aec565b820191906000526020600020905b815481529060010190602001808311610acf57829003601f168201915b5050505050905090565b610b08610b0161142a565b8383611aac565b5050565b60606000610b40610b1c84611830565b604051602001610b2c9190612dfb565b6040516020818303038152906040526119dd565b9050600a8054905081610b539190613552565b9050600a8181548110610b8f577f4e487b7100000000000000000000000000000000000000000000000000000000600052603260045260246000fd5b906000526020600020018054610ba4906134a6565b80601f0160208091040260200160405190810160405280929190818152602001828054610bd0906134a6565b8015610c1d5780601f10610bf257610100808354040283529160200191610c1d565b820191906000526020600020905b815481529060010190602001808311610c0057829003601f168201915b5050505050915050919050565b610c3b610c3561142a565b836114eb565b610c7a576040517f08c379a0000000000000000000000000000000000000000000000000000000008152600401610c71906131c1565b60405180910390fd5b610c8684848484611c19565b50505050565b60606000610cc0610c9c84611830565b604051602001610cac9190612dd9565b6040516020818303038152906040526119dd565b9050600b8054905081610cd39190613552565b9050600b8181548110610d0f577f4e487b7100000000000000000000000000000000000000000000000000000000600052603260045260246000fd5b906000526020600020018054610d24906134a6565b80601f0160208091040260200160405190810160405280929190818152602001828054610d50906134a6565b8015610d9d5780601f10610d7257610100808354040283529160200191610d9d565b820191906000526020600020905b815481529060010190602001808311610d8057829003601f168201915b5050505050915050919050565b6060610db5826113be565b610df4576040517f08c379a0000000000000000000000000000000000000000000000000000000008152600401610deb90613141565b60405180910390fd5b6000600660008481526020019081526020016000208054610e14906134a6565b80601f0160208091040260200160405190810160405280929190818152602001828054610e40906134a6565b8015610e8d5780601f10610e6257610100808354040283529160200191610e8d565b820191906000526020600020905b815481529060010190602001808311610e7057829003601f168201915b505050505090506000610e9e611c75565b9050600081511415610eb4578192505050610ef7565b600082511115610ee9578082604051602001610ed1929190612d55565b60405160208183030381529060405292505050610ef7565b610ef284611c8c565b925050505b919050565b6000610f086007611d33565b90506000610f1d610f188361073e565b611214565b90506000610f32610f2d84610b0c565b611214565b90506000610f47610f4285610c8c565b611214565b90506000838383604051602001610f6093929190612d79565b60405160208183030381529060405290506000600882604051602001610f87929190612daa565b6040516020818303038152906040529050610fd66040518060400160405280601581526020017f0a2d2d2d2d2d205356472064617461202d2d2d2d2d00000000000000000000008152506112bb565b610fdf816112bb565b61101d6040518060400160405280601581526020017f2d2d2d2d2d2d2d2d2d2d2d2d2d2d2d2d2d2d2d2d0a00000000000000000000008152506112bb565b60006110518361102c84611d41565b60405160200161103d929190612e1d565b604051602081830303815290604052611d41565b90506000816040516020016110669190612e84565b60405160208183030381529060405290506110b56040518060400160405280601581526020017f0a2d2d2d2d2d20546f6b656e20555249202d2d2d2d00000000000000000000008152506112bb565b6110be816112bb565b6110fc6040518060400160405280601581526020017f2d2d2d2d2d2d2d2d2d2d2d2d2d2d2d2d2d2d2d2d0a00000000000000000000008152506112bb565b6111063389611eff565b6111108882611f1d565b611133604051806060016040528060258152602001613ce5602591398933611f91565b61113d6007612030565b7febb98688741ffa4c7589bf325de30cf7becb63de567842e1ccdb6cb949fdc82c338960405161116e929190612f0d565b60405180910390a15050505050505050565b6000600560008473ffffffffffffffffffffffffffffffffffffffff1673ffffffffffffffffffffffffffffffffffffffff16815260200190815260200160002060008373ffffffffffffffffffffffffffffffffffffffff1673ffffffffffffffffffffffffffffffffffffffff16815260200190815260200160002060009054906101000a900460ff16905092915050565b6060806060806040518060400160405280602081526020017f3c746578743e3c747370616e2078203d202230222064793d22312e30656d223e81525092506040518060400160405280600f81526020017f3c2f747370616e3e3c2f746578743e0000000000000000000000000000000000815250905082858260405160200161129f93929190612d79565b6040516020818303038152906040529150819350505050919050565b611351816040516024016112cf9190612f51565b6040516020818303038152906040527f41304fac000000000000000000000000000000000000000000000000000000007bffffffffffffffffffffffffffffffffffffffffffffffffffffffff19166020820180517bffffffffffffffffffffffffffffffffffffffffffffffffffffffff8381831617835250505050612046565b50565b60007f01ffc9a7000000000000000000000000000000000000000000000000000000007bffffffffffffffffffffffffffffffffffffffffffffffffffffffff1916827bffffffffffffffffffffffffffffffffffffffffffffffffffffffff1916149050919050565b60008073ffffffffffffffffffffffffffffffffffffffff166002600084815260200190815260200160002060009054906101000a900473ffffffffffffffffffffffffffffffffffffffff1673ffffffffffffffffffffffffffffffffffffffff1614159050919050565b600033905090565b816004600083815260200190815260200160002060006101000a81548173ffffffffffffffffffffffffffffffffffffffff021916908373ffffffffffffffffffffffffffffffffffffffff160217905550808273ffffffffffffffffffffffffffffffffffffffff166114a5836108fa565b73ffffffffffffffffffffffffffffffffffffffff167f8c5be1e5ebec7d5bd14f71427d1e84f3dd0314c0f7b2291e5b200ac8c7c3b92560405160405180910390a45050565b60006114f6826113be565b611535576040517f08c379a000000000000000000000000000000000000000000000000000000000815260040161152c90613081565b60405180910390fd5b6000611540836108fa565b90508073ffffffffffffffffffffffffffffffffffffffff168473ffffffffffffffffffffffffffffffffffffffff1614806115af57508373ffffffffffffffffffffffffffffffffffffffff1661159784610541565b73ffffffffffffffffffffffffffffffffffffffff16145b806115c057506115bf8185611180565b5b91505092915050565b8273ffffffffffffffffffffffffffffffffffffffff166115e9826108fa565b73ffffffffffffffffffffffffffffffffffffffff161461163f576040517f08c379a000000000000000000000000000000000000000000000000000000000815260040161163690613001565b60405180910390fd5b600073ffffffffffffffffffffffffffffffffffffffff168273ffffffffffffffffffffffffffffffffffffffff1614156116af576040517f08c379a00000000000000000000000000000000000000000000000000000000081526004016116a690613041565b60405180910390fd5b6116ba83838361206f565b6116c5600082611432565b6001600360008573ffffffffffffffffffffffffffffffffffffffff1673ffffffffffffffffffffffffffffffffffffffff168152602001908152602001600020600082825461171591906133bc565b925050819055506001600360008473ffffffffffffffffffffffffffffffffffffffff1673ffffffffffffffffffffffffffffffffffffffff168152602001908152602001600020600082825461176c91906132db565b92505081905550816002600083815260200190815260200160002060006101000a81548173ffffffffffffffffffffffffffffffffffffffff021916908373ffffffffffffffffffffffffffffffffffffffff160217905550808273ffffffffffffffffffffffffffffffffffffffff168473ffffffffffffffffffffffffffffffffffffffff167fddf252ad1be2c89b69c2b068fc378daa952ba7f163c4a11628f55a4df523b3ef60405160405180910390a461182b838383612074565b505050565b60606000821415611878576040518060400160405280600181526020017f300000000000000000000000000000000000000000000000000000000000000081525090506119d8565b600082905060005b600082146118aa57808061189390613509565b915050600a826118a39190613331565b9150611880565b60008167ffffffffffffffff8111156118ec577f4e487b7100000000000000000000000000000000000000000000000000000000600052604160045260246000fd5b6040519080825280601f01601f19166020018201604052801561191e5781602001600182028036833780820191505090505b5090505b600085146119d15760018261193791906133bc565b9150600a856119469190613552565b603061195291906132db565b60f81b81838151811061198e577f4e487b7100000000000000000000000000000000000000000000000000000000600052603260045260246000fd5b60200101907effffffffffffffffffffffffffffffffffffffffffffffffffffffffffffff1916908160001a905350600a856119ca9190613331565b9450611922565b8093505050505b919050565b6000816040516020016119f09190612d3e565b6040516020818303038152906040528051906020012060001c9050919050565b611aa88282604051602401611a26929190612f73565b6040516020818303038152906040527f9710a9d0000000000000000000000000000000000000000000000000000000007bffffffffffffffffffffffffffffffffffffffffffffffffffffffff19166020820180517bffffffffffffffffffffffffffffffffffffffffffffffffffffffff8381831617835250505050612046565b5050565b8173ffffffffffffffffffffffffffffffffffffffff168373ffffffffffffffffffffffffffffffffffffffff161415611b1b576040517f08c379a0000000000000000000000000000000000000000000000000000000008152600401611b1290613061565b60405180910390fd5b80600560008573ffffffffffffffffffffffffffffffffffffffff1673ffffffffffffffffffffffffffffffffffffffff16815260200190815260200160002060008473ffffffffffffffffffffffffffffffffffffffff1673ffffffffffffffffffffffffffffffffffffffff16815260200190815260200160002060006101000a81548160ff0219169083151502179055508173ffffffffffffffffffffffffffffffffffffffff168373ffffffffffffffffffffffffffffffffffffffff167f17307eab39ab6107e8899845ad3d59bd9653f200f220920489ca2b5937696c3183604051611c0c9190612f36565b60405180910390a3505050565b611c248484846115c9565b611c3084848484612079565b611c6f576040517f08c379a0000000000000000000000000000000000000000000000000000000008152600401611c6690612fe1565b60405180910390fd5b50505050565b606060405180602001604052806000815250905090565b6060611c97826113be565b611cd6576040517f08c379a0000000000000000000000000000000000000000000000000000000008152600401611ccd90613181565b60405180910390fd5b6000611ce0611c75565b90506000815111611d005760405180602001604052806000815250611d2b565b80611d0a84611830565b604051602001611d1b929190612d55565b6040516020818303038152906040525b915050919050565b600081600001549050919050565b60606000825190506000811415611d6a5760405180602001604052806000815250915050611efa565b60006003600283611d7b91906132db565b611d859190613331565b6004611d919190613362565b90506000602082611da291906132db565b67ffffffffffffffff811115611de1577f4e487b7100000000000000000000000000000000000000000000000000000000600052604160045260246000fd5b6040519080825280601f01601f191660200182016040528015611e135781602001600182028036833780820191505090505b5090506000604051806060016040528060408152602001613d0a604091399050600181016020830160005b86811015611eb75760038101905062ffffff818a015116603f8160121c168401518060081b905060ff603f83600c1c1686015116810190508060081b905060ff603f8360061c1686015116810190508060081b905060ff603f831686015116810190508060e01b90508084526004840193505050611e3e565b506003860660018114611ed15760028114611ee157611eec565b613d3d60f01b6002830352611eec565b603d60f81b60018303525b508484525050819450505050505b919050565b611f19828260405180602001604052806000815250612210565b5050565b611f26826113be565b611f65576040517f08c379a0000000000000000000000000000000000000000000000000000000008152600401611f5c90613101565b60405180910390fd5b80600660008481526020019081526020016000209080519060200190611f8c929190612468565b505050565b61202b838383604051602401611fa993929190612fa3565b6040516020818303038152906040527fe3849f79000000000000000000000000000000000000000000000000000000007bffffffffffffffffffffffffffffffffffffffffffffffffffffffff19166020820180517bffffffffffffffffffffffffffffffffffffffffffffffffffffffff8381831617835250505050612046565b505050565b6001816000016000828254019250508190555050565b60008151905060006a636f6e736f6c652e6c6f679050602083016000808483855afa5050505050565b505050565b505050565b600061209a8473ffffffffffffffffffffffffffffffffffffffff1661226b565b15612203578373ffffffffffffffffffffffffffffffffffffffff1663150b7a026120c361142a565b8786866040518563ffffffff1660e01b81526004016120e59493929190612ec1565b602060405180830381600087803b1580156120ff57600080fd5b505af192505050801561213057506040513d601f19601f8201168201806040525081019061212d9190612814565b60015b6121b3573d8060008114612160576040519150601f19603f3d011682016040523d82523d6000602084013e612165565b606091505b506000815114156121ab576040517f08c379a00000000000000000000000000000000000000000000000000000000081526004016121a290612fe1565b60405180910390fd5b805181602001fd5b63150b7a0260e01b7bffffffffffffffffffffffffffffffffffffffffffffffffffffffff1916817bffffffffffffffffffffffffffffffffffffffffffffffffffffffff191614915050612208565b600190505b949350505050565b61221a838361228e565b6122276000848484612079565b612266576040517f08c379a000000000000000000000000000000000000000000000000000000000815260040161225d90612fe1565b60405180910390fd5b505050565b6000808273ffffffffffffffffffffffffffffffffffffffff163b119050919050565b600073ffffffffffffffffffffffffffffffffffffffff168273ffffffffffffffffffffffffffffffffffffffff1614156122fe576040517f08c379a00000000000000000000000000000000000000000000000000000000081526004016122f590613121565b60405180910390fd5b612307816113be565b15612347576040517f08c379a000000000000000000000000000000000000000000000000000000000815260040161233e90613021565b60405180910390fd5b6123536000838361206f565b6001600360008473ffffffffffffffffffffffffffffffffffffffff1673ffffffffffffffffffffffffffffffffffffffff16815260200190815260200160002060008282546123a391906132db565b92505081905550816002600083815260200190815260200160002060006101000a81548173ffffffffffffffffffffffffffffffffffffffff021916908373ffffffffffffffffffffffffffffffffffffffff160217905550808273ffffffffffffffffffffffffffffffffffffffff16600073ffffffffffffffffffffffffffffffffffffffff167fddf252ad1be2c89b69c2b068fc378daa952ba7f163c4a11628f55a4df523b3ef60405160405180910390a461246460008383612074565b5050565b828054612474906134a6565b90600052602060002090601f01602090048101928261249657600085556124dd565b82601f106124af57805160ff19168380011785556124dd565b828001600101855582156124dd579182015b828111156124dc5782518255916020019190600101906124c1565b5b5090506124ea91906124ee565b5090565b5b808211156125075760008160009055506001016124ef565b5090565b600061251e61251984613221565b6131fc565b90508281526020810184848401111561253657600080fd5b612541848285613464565b509392505050565b600061255c61255784613252565b6131fc565b90508281526020810184848401111561257457600080fd5b61257f848285613464565b509392505050565b60008135905061259681613c88565b92915050565b6000813590506125ab81613c9f565b92915050565b6000813590506125c081613cb6565b92915050565b6000815190506125d581613cb6565b92915050565b600082601f8301126125ec57600080fd5b81356125fc84826020860161250b565b91505092915050565b600082601f83011261261657600080fd5b8135612626848260208601612549565b91505092915050565b60008135905061263e81613ccd565b92915050565b60006020828403121561265657600080fd5b600061266484828501612587565b91505092915050565b6000806040838503121561268057600080fd5b600061268e85828601612587565b925050602061269f85828601612587565b9150509250929050565b6000806000606084860312156126be57600080fd5b60006126cc86828701612587565b93505060206126dd86828701612587565b92505060406126ee8682870161262f565b9150509250925092565b6000806000806080858703121561270e57600080fd5b600061271c87828801612587565b945050602061272d87828801612587565b935050604061273e8782880161262f565b925050606085013567ffffffffffffffff81111561275b57600080fd5b612767878288016125db565b91505092959194509250565b6000806040838503121561278657600080fd5b600061279485828601612587565b92505060206127a58582860161259c565b9150509250929050565b600080604083850312156127c257600080fd5b60006127d085828601612587565b92505060206127e18582860161262f565b9150509250929050565b6000602082840312156127fd57600080fd5b600061280b848285016125b1565b91505092915050565b60006020828403121561282657600080fd5b6000612834848285016125c6565b91505092915050565b60006020828403121561284f57600080fd5b600082013567ffffffffffffffff81111561286957600080fd5b61287584828501612605565b91505092915050565b60006020828403121561289057600080fd5b600061289e8482850161262f565b91505092915050565b6128b0816133f0565b82525050565b6128bf81613402565b82525050565b60006128d082613298565b6128da81856132ae565b93506128ea818560208601613473565b6128f38161363f565b840191505092915050565b6000612909826132a3565b61291381856132bf565b9350612923818560208601613473565b61292c8161363f565b840191505092915050565b6000612942826132a3565b61294c81856132d0565b935061295c818560208601613473565b80840191505092915050565b60008154612975816134a6565b61297f81866132d0565b9450600182166000811461299a57600181146129ab576129de565b60ff198316865281860193506129de565b6129b485613283565b60005b838110156129d6578154818901526001820191506020810190506129b7565b838801955050505b50505092915050565b60006129f46032836132bf565b91506129ff82613650565b604082019050919050565b6000612a176025836132bf565b9150612a228261369f565b604082019050919050565b6000612a3a601c836132bf565b9150612a45826136ee565b602082019050919050565b6000612a5d600a836132d0565b9150612a6882613717565b600a82019050919050565b6000612a806024836132bf565b9150612a8b82613740565b604082019050919050565b6000612aa36019836132bf565b9150612aae8261378f565b602082019050919050565b6000612ac66063836132d0565b9150612ad1826137b8565b606382019050919050565b6000612ae9600b836132d0565b9150612af482613853565b600b82019050919050565b6000612b0c602c836132bf565b9150612b178261387c565b604082019050919050565b6000612b2f600d836132d0565b9150612b3a826138cb565b600d82019050919050565b6000612b526038836132bf565b9150612b5d826138f4565b604082019050919050565b6000612b75602a836132bf565b9150612b8082613943565b604082019050919050565b6000612b986029836132bf565b9150612ba382613992565b604082019050919050565b6000612bbb602e836132bf565b9150612bc6826139e1565b604082019050919050565b6000612bde6002836132d0565b9150612be982613a30565b600282019050919050565b6000612c016020836132bf565b9150612c0c82613a59565b602082019050919050565b6000612c246031836132bf565b9150612c2f82613a82565b604082019050919050565b6000612c47602c836132bf565b9150612c5282613ad1565b604082019050919050565b6000612c6a602f836132bf565b9150612c7582613b20565b604082019050919050565b6000612c8d600a836132d0565b9150612c9882613b6f565b600a82019050919050565b6000612cb06021836132bf565b9150612cbb82613b98565b604082019050919050565b6000612cd3600a836132d0565b9150612cde82613be7565b600a82019050919050565b6000612cf6601d836132d0565b9150612d0182613c10565b601d82019050919050565b6000612d196031836132bf565b9150612d2482613c39565b604082019050919050565b612d388161345a565b82525050565b6000612d4a8284612937565b915081905092915050565b6000612d618285612937565b9150612d6d8284612937565b91508190509392505050565b6000612d858286612937565b9150612d918285612937565b9150612d9d8284612937565b9150819050949350505050565b6000612db68285612968565b9150612dc28284612937565b9150612dcd82612b22565b91508190509392505050565b6000612de482612a50565b9150612df08284612937565b915081905092915050565b6000612e0682612adc565b9150612e128284612937565b915081905092915050565b6000612e2882612c80565b9150612e348285612937565b9150612e3f82612ab9565b9150612e4b8284612937565b9150612e5682612bd1565b91508190509392505050565b6000612e6d82612cc6565b9150612e798284612937565b915081905092915050565b6000612e8f82612ce9565b9150612e9b8284612937565b915081905092915050565b6000602082019050612ebb60008301846128a7565b92915050565b6000608082019050612ed660008301876128a7565b612ee360208301866128a7565b612ef06040830185612d2f565b8181036060830152612f0281846128c5565b905095945050505050565b6000604082019050612f2260008301856128a7565b612f2f6020830184612d2f565b9392505050565b6000602082019050612f4b60008301846128b6565b92915050565b60006020820190508181036000830152612f6b81846128fe565b905092915050565b60006040820190508181036000830152612f8d81856128fe565b9050612f9c6020830184612d2f565b9392505050565b60006060820190508181036000830152612fbd81866128fe565b9050612fcc6020830185612d2f565b612fd960408301846128a7565b949350505050565b60006020820190508181036000830152612ffa816129e7565b9050919050565b6000602082019050818103600083015261301a81612a0a565b9050919050565b6000602082019050818103600083015261303a81612a2d565b9050919050565b6000602082019050818103600083015261305a81612a73565b9050919050565b6000602082019050818103600083015261307a81612a96565b9050919050565b6000602082019050818103600083015261309a81612aff565b9050919050565b600060208201905081810360008301526130ba81612b45565b9050919050565b600060208201905081810360008301526130da81612b68565b9050919050565b600060208201905081810360008301526130fa81612b8b565b9050919050565b6000602082019050818103600083015261311a81612bae565b9050919050565b6000602082019050818103600083015261313a81612bf4565b9050919050565b6000602082019050818103600083015261315a81612c17565b9050919050565b6000602082019050818103600083015261317a81612c3a565b9050919050565b6000602082019050818103600083015261319a81612c5d565b9050919050565b600060208201905081810360008301526131ba81612ca3565b9050919050565b600060208201905081810360008301526131da81612d0c565b9050919050565b60006020820190506131f66000830184612d2f565b92915050565b6000613206613217565b905061321282826134d8565b919050565b6000604051905090565b600067ffffffffffffffff82111561323c5761323b613610565b5b6132458261363f565b9050602081019050919050565b600067ffffffffffffffff82111561326d5761326c613610565b5b6132768261363f565b9050602081019050919050565b60008190508160005260206000209050919050565b600081519050919050565b600081519050919050565b600082825260208201905092915050565b600082825260208201905092915050565b600081905092915050565b60006132e68261345a565b91506132f18361345a565b9250827fffffffffffffffffffffffffffffffffffffffffffffffffffffffffffffffff0382111561332657613325613583565b5b828201905092915050565b600061333c8261345a565b91506133478361345a565b925082613357576133566135b2565b5b828204905092915050565b600061336d8261345a565b91506133788361345a565b9250817fffffffffffffffffffffffffffffffffffffffffffffffffffffffffffffffff04831182151516156133b1576133b0613583565b5b828202905092915050565b60006133c78261345a565b91506133d28361345a565b9250828210156133e5576133e4613583565b5b828203905092915050565b60006133fb8261343a565b9050919050565b60008115159050919050565b60007fffffffff0000000000000000000000000000000000000000000000000000000082169050919050565b600073ffffffffffffffffffffffffffffffffffffffff82169050919050565b6000819050919050565b82818337600083830152505050565b60005b83811015613491578082015181840152602081019050613476565b838111156134a0576000848401525b50505050565b600060028204905060018216806134be57607f821691505b602082108114156134d2576134d16135e1565b5b50919050565b6134e18261363f565b810181811067ffffffffffffffff82111715613500576134ff613610565b5b80604052505050565b60006135148261345a565b91507fffffffffffffffffffffffffffffffffffffffffffffffffffffffffffffffff82141561354757613546613583565b5b600182019050919050565b600061355d8261345a565b91506135688361345a565b925082613578576135776135b2565b5b828206905092915050565b7f4e487b7100000000000000000000000000000000000000000000000000000000600052601160045260246000fd5b7f4e487b7100000000000000000000000000000000000000000000000000000000600052601260045260246000fd5b7f4e487b7100000000000000000000000000000000000000000000000000000000600052602260045260246000fd5b7f4e487b7100000000000000000000000000000000000000000000000000000000600052604160045260246000fd5b6000601f19601f8301169050919050565b7f4552433732313a207472616e7366657220746f206e6f6e20455243373231526560008201527f63656976657220696d706c656d656e7465720000000000000000000000000000602082015250565b7f4552433732313a207472616e736665722066726f6d20696e636f72726563742060008201527f6f776e6572000000000000000000000000000000000000000000000000000000602082015250565b7f4552433732313a20746f6b656e20616c7265616479206d696e74656400000000600082015250565b7f54484952445f574f524400000000000000000000000000000000000000000000600082015250565b7f4552433732313a207472616e7366657220746f20746865207a65726f2061646460008201527f7265737300000000000000000000000000000000000000000000000000000000602082015250565b7f4552433732313a20617070726f766520746f2063616c6c657200000000000000600082015250565b7f222c20226465736372697074696f6e223a20224120686967686c79206163636c60008201527f61696d656420636f6c6c656374696f6e206f6620737175617265732e222c202260208201527f696d616765223a2022646174613a696d6167652f7376672b786d6c3b6261736560408201527f36342c0000000000000000000000000000000000000000000000000000000000606082015250565b7f5345434f4e445f574f5244000000000000000000000000000000000000000000600082015250565b7f4552433732313a206f70657261746f7220717565727920666f72206e6f6e657860008201527f697374656e7420746f6b656e0000000000000000000000000000000000000000602082015250565b7f3c2f746578743e3c2f7376673e00000000000000000000000000000000000000600082015250565b7f4552433732313a20617070726f76652063616c6c6572206973206e6f74206f7760008201527f6e6572206e6f7220617070726f76656420666f7220616c6c0000000000000000602082015250565b7f4552433732313a2062616c616e636520717565727920666f7220746865207a6560008201527f726f206164647265737300000000000000000000000000000000000000000000602082015250565b7f4552433732313a206f776e657220717565727920666f72206e6f6e657869737460008201527f656e7420746f6b656e0000000000000000000000000000000000000000000000602082015250565b7f45524337323155524953746f726167653a2055524920736574206f66206e6f6e60008201527f6578697374656e7420746f6b656e000000000000000000000000000000000000602082015250565b7f227d000000000000000000000000000000000000000000000000000000000000600082015250565b7f4552433732313a206d696e7420746f20746865207a65726f2061646472657373600082015250565b7f45524337323155524953746f726167653a2055524920717565727920666f722060008201527f6e6f6e6578697374656e7420746f6b656e000000000000000000000000000000602082015250565b7f4552433732313a20617070726f76656420717565727920666f72206e6f6e657860008201527f697374656e7420746f6b656e0000000000000000000000000000000000000000602082015250565b7f4552433732314d657461646174613a2055524920717565727920666f72206e6f60008201527f6e6578697374656e7420746f6b656e0000000000000000000000000000000000602082015250565b7f7b226e616d65223a202200000000000000000000000000000000000000000000600082015250565b7f4552433732313a20617070726f76616c20746f2063757272656e74206f776e6560008201527f7200000000000000000000000000000000000000000000000000000000000000602082015250565b7f46495253545f574f524400000000000000000000000000000000000000000000600082015250565b7f646174613a6170706c69636174696f6e2f6a736f6e3b6261736536342c000000600082015250565b7f4552433732313a207472616e736665722063616c6c6572206973206e6f74206f60008201527f776e6572206e6f7220617070726f766564000000000000000000000000000000602082015250565b613c91816133f0565b8114613c9c57600080fd5b50565b613ca881613402565b8114613cb357600080fd5b50565b613cbf8161340e565b8114613cca57600080fd5b50565b613cd68161345a565b8114613ce157600080fd5b5056fe416e204e465420772f20494420257320686173206265656e206d696e74656420746f2025734142434445464748494a4b4c4d4e4f505152535455565758595a6162636465666768696a6b6c6d6e6f707172737475767778797a303132333435363738392b2fa2646970667358221220990a05333e1ff806cb5dd548717bc90223d632bcabdb7943d8f58ad299d42af064736f6c634300080400333c73766720786d6c6e733d27687474703a2f2f7777772e77332e6f72672f323030302f73766727207072657365727665417370656374526174696f3d27784d696e594d696e206d656574272076696577426f783d273020302033353020333530273e3c7374796c653e2e62617365207b2066696c6c3a2077686974653b20666f6e742d66616d696c793a2073657269663b20666f6e742d73697a653a20323470783b207d3c2f7374796c653e3c726563742077696474683d273130302527206865696768743d2731303025272066696c6c3d27626c61636b27202f3e3c7465787420783d273530252720793d273530252720636c6173733d27626173652720646f6d696e616e742d626173656c696e653d276d6964646c652720746578742d616e63686f723d276d6964646c65273e",
  "linkReferences": {},
  "deployedLinkReferences": {}
}